:100000000C9435000C945D000C945D000C945D0024
:100010000C945D000C945D000C945D000C945D00EC
:100020000C945D000C945D000C945D000C945D00DC
:100030000C945D000C945D000C945D000C945D00CC
:100040000C94E0030C945D000C94AE030C948803B4
:100050000C945D000C942A040C945D000C945D00DB
:100060000C945D000C945D00390511241FBECFEF88
:10007000D8E0DEBFCDBF11E0A0E0B1E0E0E5FCE1FB
:1000800002C005900D92A239B107D9F724E0A2E988
:10009000B1E001C01D92AB3DB207E1F710E0C5E34E
:1000A000D0E004C02197FE010E94110EC433D10795
:1000B000C9F70E94DE050C94260E0C9400004F92A6
:1000C0005F926F927F92AF92BF92CF92DF92EF9248
:1000D000FF920F931F93CF93DF93EC01239610E0D1
:1000E000B12C01E0C12CD12C76018991682F082E0A
:1000F000000C770B605371096A30710548F08E323D
:1001000021F08D32B9F511E0F0CFBB24B394EDCFDF
:100110008D32C9F38E32C9F3072E000C880B990B70
:100120000E94850C2B013C01B1100FC020E030E093
:1001300040E251E4C701B6010E943A0DA3019201C9
:100140000E94710B6B017C01D0CFA12C0A1561F0CC
:1001500020E030E040E251E4C301B2010E94E20B32
:100160002B013C01A394F2CF0F5FA3019201C701C1
:10017000B601E6CF112321F0F7FAF094F7F8F094E6
:10018000C701B601DF91CF911F910F91FF90EF90C2
:10019000DF90CF90BF90AF907F906F905F904F9027
:1001A0000895AF92BF92CF92DF92EF92FF920F939A
:1001B0001F93CF93DF936C017B018B01040F151FFD
:1001C000EB015E01AE18BF08C017D10759F0699165
:1001D000D601ED91FC910190F081E02DC6010995C9
:1001E000892B79F7C501DF91CF911F910F91FF9076
:1001F000EF90DF90CF90BF90AF900895FC01538DAA
:10020000448D252F30E0842F90E0821B930B5417F0
:1002100010F0CF96089501970895FC01918D828D7D
:10022000981761F0A28DAE0FBF2FB11D5D968C9116
:10023000928D9F5F9F73928F90E008958FEF9FEF55
:100240000895FC01918D828D981731F0828DE80F11
:10025000F11D858D90E008958FEF9FEF0895FC01CB
:10026000918D228D892F90E0805C9F4F821B910998
:100270008F73992708958FED93E00E942F0121E05D
:10028000892B09F420E0822F089580E090E0892BEB
:1002900029F00E943B0181110C9400000895FC019B
:1002A000A48DA80FB92FB11DA35ABF4F2C91848DD7
:1002B00090E001968F739927848FA689B7892C9334
:1002C000A089B1898C91837080648C93938D848D87
:1002D000981306C00288F389E02D80818F7D80838A
:1002E0000895EF92FF920F931F93CF93DF93EC014A
:1002F00081E0888F9B8D8C8D98131AC0E889F989CD
:10030000808185FF15C09FB7F894EE89FF896083CF
:10031000E889F98980818370806480839FBF81E050
:1003200090E0DF91CF911F910F91FF90EF90089592
:10033000F62E0B8D10E00F5F1F4F0F731127E02E6D
:100340008C8D8E110CC00FB607FCFACFE889F989A5
:10035000808185FFF5CFCE010E944F01F1CFEB8D5B
:10036000EC0FFD2FF11DE35AFF4FF0829FB7F89479
:100370000B8FEA89FB8980818062CFCFCF93DF9397
:10038000EC01888D8823B9F0AA89BB89E889F989AD
:100390008C9185FD03C0808186FD0DC00FB607FCE2
:1003A000F7CF8C9185FFF2CF808185FFEDCFCE0115
:1003B0000E944F01E9CFDF91CF9108953FB7F894A4
:1003C0008091A4039091A503A091A603B091A703E7
:1003D00026B5A89B05C02F3F19F00196A11DB11DA0
:1003E0003FBFBA2FA92F982F8827BC01CD01620FDC
:1003F000711D811D911D42E0660F771F881F991F97
:100400004A95D1F708952FB7F8946091A0037091A1
:10041000A1038091A2039091A3032FBF0895FC0133
:1004200001900020E9F73197AF01481B590BBC013F
:100430008FED93E00C94D1008F929F92AF92BF9278
:100440000F931F93CF93DF93CDB7DEB7A1970FB66E
:10045000F894DEBF0FBECDBF19A2423008F44AE0C7
:100460008E010F5D1F4F842E912CB12CA12CA50164
:1004700094010E94D00DE62FB901CA01EA30F4F4CC
:10048000E05DD801EE938D01232B242B252B79F7EA
:1004900090E080E0109719F0CD010E940F02A19624
:1004A0000FB6F894DEBF0FBECDBFDF91CF911F9185
:1004B0000F91BF90AF909F908F900895E95CE1CF2E
:1004C000CF93DF930E940F02EC018EE191E00E9436
:1004D0000F028C0F9D1FDF91CF9108950F931F93F3
:1004E000CF93DF93EC018B018881893061F08A30F2
:1004F00081F181E291E00E94600280E0DF91CF9182
:100500001F910F91089530E020E086E0829FF00176
:10051000839FF00D1124E050FF4FDE0111960190F2
:100520000D928A95E1F786E391E00E946002EA81EC
:10053000FB8180819C8121E030E001C0220F9A95EF
:10054000EAF7822B8083ED81FE811183008381E0B5
:10055000D5CF21E030E0D9CF4F925F926F927F925A
:100560008F929F92AF92BF92CF92DF92EF92FF92C3
:100570000F931F93CF936B017C01742EAC019B01F1
:100580000E94A70D882399F080E491E0CF911F91FC
:100590000F91FF90EF90DF90CF90BF90AF909F9022
:1005A0008F907F906F905F904F900C940F02460158
:1005B0005701E894B7F82FEF3FEF4FE75FE7C5012A
:1005C000B4010E94A70D81110DC02FEF3FEF4FE73F
:1005D0005FE7C501B4010E94DD0B18161CF484E42A
:1005E00091E0D4CF2FEF3FEF4FE75FE4C701B601B3
:1005F0000E94350D18161CF488E491E0C7CF2FEF48
:100600003FEF4FE75FECC701B6010E94DD0B87FDAE
:10061000F3CF20E030E0A901C701B6010E94DD0B55
:1006200010E000E087FF0AC06DE28FED93E00E94CA
:1006300071018C01F7FAF094F7F8F094C0E060E0F3
:1006400070E080E09FE37C1641F020E030E040E283
:1006500051E40E94E20BCF5FF6CFA70196010E9402
:10066000710B2B013C010E94540C4B015C014AE0D0
:100670000E941C027C01E00EF11ECC23C1F1C501D9
:10068000B4010E94830C9B01AC01C301B2010E9422
:10069000700B4B015C016EE28FED93E00E947101E3
:1006A000E80EF91EC15018F120E030E040E251E4BC
:1006B000C501B4010E943A0D2B013C010E94540C6B
:1006C0004B01B12CA12C4AE0C501B4010E941C02CF
:1006D000E80EF91EC501B4010E94830C9B01AC0118
:1006E000C301B2010E94700B4B015C01DBCFC7015B
:1006F000CF911F910F91FF90EF90DF90CF90BF901F
:10070000AF909F908F907F906F905F904F900895E3
:100710001F920F920FB60F9211242F933F934F9376
:100720005F936F937F938F939F93AF93BF93EF9359
:10073000FF938FED93E00E944F01FF91EF91BF91E6
:10074000AF919F918F917F916F915F914F913F9169
:100750002F910F900FBE0F901F9018951F920F9220
:100760000FB60F9211242F938F939F93EF93FF93C4
:10077000E091EF03F091F0038081E091F503F091B7
:10078000F60382FD1BC090818091F8038F5F8F7309
:100790002091F903821741F0E091F803F0E0E15273
:1007A000FC4F958F8093F803FF91EF919F918F916C
:1007B0002F910F900FBE0F901F9018958081F4CF4E
:1007C0001F920F920FB60F9211242F933F938F9386
:1007D0009F93AF93BF938091A0039091A103A091A9
:1007E000A203B091A30330919F0323E0230F2D3781
:1007F00058F50196A11DB11D20939F038093A0037E
:100800009093A103A093A203B093A3038091A403A8
:100810009091A503A091A603B091A7030196A11DF5
:10082000B11D8093A4039093A503A093A603B09356
:10083000A703BF91AF919F918F913F912F910F90FF
:100840000FBE0F901F90189526E8230F0296A11D4A
:10085000B11DD2CF1F920F920FB60F9211240F939A
:100860001F932F933F934F935F936F937F938F9338
:100870009F93AF93BF93EF93FF9380917900409143
:100880009B0350919C0360919D0370919E03E091A6
:100890009903F0919A03E756FE4F9081491B510945
:1008A0006109710940939B0350939C0360939D03DE
:1008B00070939E03E0919903F0919A03E756FE4FDF
:1008C000808340919B0350919C0360919D037091A4
:1008D0009E03480F511D611D711D40939B03509352
:1008E0009C0360939D0370939E0320919903309124
:1008F0009A032F5F3F4F317030939A0320939903EF
:1009000040919B0350919C0360919D0370919E03C5
:1009100099E076956795579547959A95D1F74093C5
:10092000980190E0209198012750330B821793078C
:100930000CF066C020919701222309F461C08091D8
:10094000A8039091A903A091AA03B091AB03892BAE
:100950008A2B8B2B21F10E9403020091A803109196
:10096000A9032091AA033091AB03E091C803601B57
:10097000710B820B930B24E0E29FF0011124EC54E5
:10098000FC4F60837183828393838091C80390E0DE
:10099000019665E070E00E94BC0D8093C8030E9440
:1009A00003026093A8037093A9038093AA03909312
:1009B000AB031092970181E0809396010E9403029D
:1009C0006093AC037093AD038093AE039093AF0339
:1009D0008091C903882379F18091CA039091CB0358
:1009E000A091CC03B091CD030197A109B1098093E7
:1009F000CA039093CB03A093CC03B093CD0308C05C
:100A00002091980130E0295F3F4F28173907FCF00B
:100A1000FF91EF91BF91AF919F918F917F916F91D6
:100A20005F914F913F912F911F910F910F900FBEAA
:100A30000F901F9018958091CA039091CB03A091BD
:100A4000CC03B091CD030196A11DB11DD0CF8091F3
:100A500097018111DDCF0E94030260939201709390
:100A60009301809394019093950181E08093970185
:100A7000CFCFCF93DF93EFEDF3E01382128288EEB6
:100A800093E0A0E0B0E084839583A683B78380E100
:100A900091E09183808385EC90E09587848784EC56
:100AA00090E09787868780EC90E0918B808B81EC3B
:100AB00090E0938B828B82EC90E0958B848B86EC1C
:100AC00090E0978B868B118E128E138E148EC3EB53
:100AD000D4E080E090E0A0E0BFE38C839D83AE8310
:100AE000BF8380E090E0A0ECBFE388839983AA8372
:100AF000BB838DEC9CECACECBDE388879987AA871F
:100B0000BB8780E090E0A8E4B4E488A399A3AAA3FB
:100B1000BBA380E090E0AAEFB4E48CA39DA3AEA3B6
:100B2000BFA380E090E8A1EBB4E48C8B9D8BAE8BEF
:100B3000BF8B8C879D87AE87BF8784E690E0A0E05F
:100B4000B0E08C8F9D8FAE8FBF8F188A198A1A8A5A
:100B50001B8A0E940302688F798F8A8F9B8FE6EA37
:100B6000F4E089E0808380E293E0908787838CE8DB
:100B700095E09287818780ED97E094878387E9E904
:100B8000F4E08AE0808384EC94E09087878388ECAB
:100B900095E09287818784EF96E094878387E4E8E5
:100BA000F4E080E894E0918380838CE794E0938381
:100BB00082831482148ADF91CF910895CF93DF93BB
:100BC000CDB7DEB72C970FB6F894DEBF0FBECDBF02
:100BD000789484B5826084BD84B5816084BD85B518
:100BE000826085BD85B5816085BD80916E00816024
:100BF00080936E00109281008091810082608093CA
:100C000081008091810081608093810080918000CB
:100C10008160809380008091B10084608093B100F6
:100C20008091B00081608093B00080917A008460F0
:100C300080937A0080917A00826080937A0080911C
:100C40007A00816080937A0080917A008068809336
:100C50007A001092C100F8948FE880937A009FE0A8
:100C600090937E0080937A0080E680937C00809150
:100C70007C00826080937C008FEF80937E00809167
:100C80007B0080937B007894E091EF03F091F00378
:100C900082E08083E091EB03F091EC031082E0911D
:100CA000ED03F091EE0380E180831092F703E09171
:100CB000F303F091F40386E08083E091F103F09177
:100CC000F203808180618083E091F103F091F2036F
:100CD000808188608083E091F103F091F20380814C
:100CE00080688083E091F103F091F20380818F7D31
:100CF0008083109280001092810080918000806F2C
:100D00008093800082E18093810080E29EE4909352
:100D10008700809386006CE875E086EA94E00E9484
:100D20006E0268EC75E089E994E00E946E020E9410
:100D3000DE014B015C012CEDC22E25E0D22EE12C10
:100D4000F12C0E94DE01681979098A099B09683E25
:100D5000734081059105A8F321E0C21AD108E1088A
:100D6000F10838EE830E33E0931EA11CB11CC114B0
:100D7000D104E104F10429F70E9403026093DB032C
:100D80007093DC038093DD039093DE030E940302E3
:100D90000091B0031091B1032091B2033091B303DD
:100DA0006017710782079307C0F080917A00806412
:100DB00080937A008091B0039091B103A091B20327
:100DC000B091B3030196A11DB11D8093B003909320
:100DD000B103A093B203B093B3030E940302009146
:100DE000AC031091AD032091AE033091AF03601BB3
:100DF000710B820B930B693C71058105910590F194
:100E0000F8941092B4031092B5031092B6031092A6
:100E1000B7031092B8031092B9031092BA0310925C
:100E2000BB031092BC031092BD031092BE0310923C
:100E3000BF031092C0031092C1031092C20310921C
:100E4000C3031092C4031092C5031092C6031092FC
:100E5000C7031092A8031092A9031092AA0310923C
:100E6000AB0378948FED93E00E942F0118161906BA
:100E7000D4F48FED93E00E940D01E091980491E08D
:100E80009E0F90939804F0E0EC57FB4F8583E92F79
:100E9000F0E0EC57FB4F84818A3021F751E050930A
:100EA000880410929804809188048823B1F080917E
:100EB0008904833581F480918A04823509F43FC224
:100EC000833549F480918B048A3309F412C28CE48F
:100ED00091E00E9460021092880481E09091DA0310
:100EE000923009F080E08093C903F8948091C803A0
:100EF0008150990B65E070E00E94BC0D95E0C92E11
:100F0000D12CE12CF12C10E000E0812C912C54012B
:100F1000A82FB0E0BC83AB83FD01EE0FFF1FEE0FE7
:100F2000FF1FEC54FC4F80819181A281B381892BFA
:100F30008A2B8B2BE9F080819181A281B381883E3D
:100F40009340A105B105A0F42081318142815381F4
:100F5000C701B6010E94AC0D0E94830C9B01AC013D
:100F6000C501B4010E94710B4B015C010C0D1D1DEC
:100F70008B819C81019765E070E00E94BC0D31E09F
:100F8000C31AD108E108F10809F0C2CF789420E033
:100F900030E0A901C501B4010E94350D412C512C4E
:100FA000320118169CF448EE53E0049FB001059FEF
:100FB000700D149F700D112490E080E00E94830C4E
:100FC000A50194010E94E20B2B013C018091C90311
:100FD000882321F077FA709477F870944092D603C2
:100FE0005092D7036092D8037092D903C0908004C6
:100FF000D0908104E0908204F09083048091A20458
:101000009091A3049C838B83BC0190E080E00E94BC
:10101000830C4B015C0100919E0410919F0420E021
:1010200030E040E85FEBC701B6010E94DD0B87FFAF
:101030009AC18091A0049091A104AB81BC81A81BAE
:10104000B90BBD0190E080E00E94830CA7019601DE
:101050000E943A0DA50194010E94710B0E94540C4C
:10106000F801718360838090D2039090D303A090A5
:10107000D403B090D50320E030E0A901C501B4014C
:101080000E94DD0B81110BC020E030E0A901C301FB
:10109000B2010E94DD0B811102C01092DA03C090F0
:1010A0007C04D0907D04E0907E04F0907F04A70142
:1010B0009601C501B4010E94DD0B882309F44FC0DD
:1010C00020E030E0A901C701B6010E94DD0B8111CB
:1010D00065C11092D2031092D3031092D4031092E0
:1010E000D50320E030E841EB54E42093C70430936B
:1010F000C8044093C9045093CA042093BF0430939A
:10110000C0044093C1045093C2041092C3041092CF
:10111000C4041092C5041092C6040E940302609396
:10112000CB047093CC048093CD049093CE0480E0E4
:1011300090E6A1EBB4E48093D3049093D404A093FD
:10114000D504B093D60420E030EA41EB54E4209378
:10115000D7043093D8044093D9045093DA04809094
:10116000D2039090D303A090D403B090D5030E94F3
:1011700003026B837C838D839E83C090CF04D090C9
:10118000D004E090D104F090D2048091CB049091EF
:10119000CC04A091CD04B091CE042B813C814D8133
:1011A0005E81281B390B4A0B5B0BDA01C9018C15D8
:1011B0009D05AE05BF0508F09BC10091C7041091C5
:1011C000C8043091C9043C874091CA044B87B801D8
:1011D0008C859B850E94540CE091AB04F091AC048B
:1011E000718360834091DB035091DC036091DD03E8
:1011F0007091DE038091CE039091CF03A091D00334
:10120000B091D10384179507A607B70708F064C00B
:1012100082E591E00E940F026091D6037091D7039E
:101220008091D8039091D90342E00E94AC028BE5F3
:1012300091E00E940F026091D2037091D3038091DC
:10124000D4039091D50342E00E94AC0289E691E07C
:101250000E940F0260918004709181048091820449
:101260009091830442E00E94AC0288E791E00E94E2
:101270000F02C090CA03D090CB03E090CC03F09053
:10128000CD034AE0C701B601F7FE0DC06DE28FED58
:1012900093E00E94710166277727CB016C197D09C5
:1012A0008E099F094AE00E941C028FE891E00E948B
:1012B00060028091DB039091DC03A091DD03B0918B
:1012C000DE03C296A11DB11D8093CE039093CF0380
:1012D000A093D003B093D10340E050E0452B09F434
:1012E0004BCD0E943B01882309F446CD0E940000AB
:1012F00043CD89E894E00E945F006B017C0120E00F
:1013000030E040E85FEB0E94350D87FDE0CD20E046
:1013100030E040E85FE3C701B6010E94DD0B18161C
:101320000CF4D5CD8FE491E00E946002E09184043A
:10133000F0918504C082D182E282F382CCCD80918B
:101340008B048A3309F0C3CD89E894E00E945F00E2
:101350006B017C018FE491E00E946002E0918604C1
:10136000F0918704E7CF6091A4047091A5042B81CC
:101370003C81621B730B90E080E00E94830CA7010C
:1013800096010E943A0DA50194010E94710B0E94E2
:10139000540CD80111967C936E9365CE20E030E01A
:1013A000A901C701B6010E94350D18160CF070C0D6
:1013B0008091DA03823009F047C080E090E8A1EB29
:1013C000B4E48093C7049093C804A093C904B09375
:1013D000CA048093BF049093C004A093C104B09347
:1013E000C2041092C3041092C4041092C504109257
:1013F000C6040E9403026093CB047093CC048093D4
:10140000CD049093CE0420E030E641EB54E42093E9
:10141000D3043093D4044093D5045093D60480E091
:1014200090EAA1EBB4E48093D7049093D804A093FE
:10143000D904B093DA041092D2031092D30310921D
:10144000D4031092D5038BCEC092D203D092D30393
:10145000E092D403F092D50320E030E841EB54E46D
:101460002093D3043093D4044093D5045093D604EE
:1014700080E090E0AAEFB4E48093D7049093D8047E
:10148000A093D904B093DA0491E09093DA0367CE85
:1014900020E030E0A901C701B6010E94DD0B87FF03
:1014A0005ECE8091DA03813009F487CFC092D203F7
:1014B000D092D303E092D403F092D50320E030E041
:1014C00048E454E42093D3043093D4044093D504E7
:1014D0005093D60480E090E8A1EBB4E48093D70465
:1014E0009093D804A093D904B093DA0492E0CDCFBE
:1014F000A3019201C501B4010E94700B4B015C0174
:101500002091C3043091C4044091C5045091C60495
:10151000C301B2010E94700B6F83788789879A8715
:10152000C701B6010E94830C6B017C012091B704B6
:101530003091B8044091B9045091BA04C501B40186
:101540000E943A0DA70196010E943A0D20E030E07A
:101550004AE754E40E94E20B2091BF043091C0049A
:101560004091C1045091C2040E94710B6093BF046A
:101570007093C0048093C1049093C2045091D70427
:101580005983A091D804AA832090D9043090DA041A
:10159000252F3A2FA1010E94350D18165CF4898180
:1015A0009A81D1018093BF049093C004A093C10499
:1015B000B093C2040091D3041091D404B091D50427
:1015C000BC87E091D604EB8798014B2F5E2F60918A
:1015D000BF047091C0048091C1049091C2040E9424
:1015E000DD0B87FF0BC0C801AC85BB858093BF04B2
:1015F0009093C004A093C104B093C2042091B3049B
:101600003091B4044091B5045091B604C501B401C1
:101610000E943A0D4B015C0120E030E04AE754E4BF
:101620006F81788589859A850E943A0DA701960178
:101630000E94E20B2091BB043091BC044091BD0498
:101640005091BE040E943A0D9B01AC01C501B4014A
:101650000E94700B2091BF043091C0044091C104DE
:101660005091C2040E94710B6B017C019B01AC0183
:1016700069817A81C1010E94DD0B87FD03C0C982A7
:10168000DA82170129813A81A101B8018C859B85F5
:101690000E94350D181624F009811A812C863B868C
:1016A0002B813C814D815E812093CB043093CC040F
:1016B0004093CD045093CE044092C3045092C4048E
:1016C0006092C5047092C604C801AC85BB85809346
:1016D000C7049093C804A093C904B093CA0477CDFB
:1016E0005058BB27AA270E94880B0C94FB0C0E9421
:1016F000ED0C38F00E94F40C20F039F49F3F19F4FF
:1017000026F40C94EA0C0EF4E095E7FB0C94E40C40
:10171000E92F0E940C0D58F3BA176207730784076C
:10172000950720F079F4A6F50C942E0D0EF4E095B3
:101730000B2EBA2FA02D0B01B90190010C01CA018B
:10174000A0011124FF27591B99F0593F50F4503E36
:1017500068F11A16F040A22F232F342F4427585F28
:10176000F3CF469537952795A795F0405395C9F740
:101770007EF41F16BA0B620B730B840BBAF09150F8
:10178000A1F0FF0FBB1F661F771F881FC2F70EC097
:10179000BA0F621F731F841F48F48795779567956A
:1017A000B795F7959E3F08F0B0CF9395880F08F056
:1017B0009927EE0F9795879508950E94C00C08F41D
:1017C00081E008950E94F60B0C94FB0C0E94F40C2F
:1017D00058F00E94ED0C40F029F45F3F29F00C9482
:1017E000E40C51110C942F0D0C94EA0C0E940C0D7A
:1017F00068F39923B1F3552391F3951B550BBB2740
:10180000AA2762177307840738F09F5F5F4F220F84
:10181000331F441FAA1FA9F335D00E2E3AF0E0E87B
:1018200032D091505040E695001CCAF72BD0FE2FC5
:1018300029D0660F771F881FBB1F26173707480759
:10184000AB07B0E809F0BB0B802DBF01FF27935811
:101850005F4F3AF09E3F510578F00C94E40C0C94E5
:101860002F0D5F3FE4F3983ED4F386957795679507
:10187000B795F7959F5FC9F7880F911D9695879546
:1018800097F90895E1E0660F771F881FBB1F621765
:1018900073078407BA0720F0621B730B840BBA0B23
:1018A000EE1F88F7E09508950E94140D88F09F5769
:1018B00098F0B92F9927B751B0F0E1F0660F771F74
:1018C000881F991F1AF0BA95C9F714C0B13091F06A
:1018D0000E942E0DB1E008950C942E0D672F782FE5
:1018E0008827B85F39F0B93FCCF38695779567952F
:1018F000B395D9F73EF490958095709561957F4F9B
:101900008F4F9F4F0895E89409C097FB3EF4909540
:101910008095709561957F4F8F4F9F4F9923A9F0C8
:10192000F92F96E9BB279395F69587957795679557
:10193000B795F111F8CFFAF4BB0F11F460FF1BC09B
:101940006F5F7F4F8F4F9F4F16C0882311F096E92E
:1019500011C0772321F09EE8872F762F05C06623DC
:1019600071F096E8862F70E060E02AF09A95660F95
:10197000771F881FDAF7880F9695879597F908954E
:10198000990F0008550FAA0BE0E8FEEF1616170690
:10199000E807F907C0F012161306E407F50798F0F8
:1019A000621B730B840B950B39F40A2661F0232B11
:1019B000242B252B21F408950A2609F4A140A6958D
:1019C0008FEF811D811D089597F99F6780E870E072
:1019D00060E008959FEF80EC089500240A941616A5
:1019E000170618060906089500240A94121613060D
:1019F000140605060895092E0394000C11F488239B
:101A000052F0BB0F40F4BF2B11F460FF04C06F5FB6
:101A10007F4F8F4F9F4F089557FD9058440F551F8C
:101A200059F05F3F71F04795880F97FB991F61F060
:101A30009F3F79F087950895121613061406551FD7
:101A4000F2CF4695F1DF08C0161617061806991F43
:101A5000F1CF86957105610508940895E894BB2738
:101A600066277727CB0197F908950E94C00C08F4E8
:101A70008FEF08950E944D0D0C94FB0C0E94ED0C0D
:101A800038F00E94F40C20F0952311F00C94E40C33
:101A90000C94EA0C11240C942F0D0E940C0D70F381
:101AA000959FC1F3950F50E0551F629FF001729F03
:101AB000BB27F00DB11D639FAA27F00DB11DAA1F12
:101AC000649F6627B00DA11D661F829F2227B00D5F
:101AD000A11D621F739FB00DA11D621F839FA00DEA
:101AE000611D221F749F3327A00D611D231F849F3A
:101AF000600D211D822F762F6A2F11249F57504091
:101B00009AF0F1F088234AF0EE0FFF1FBB1F661F0B
:101B1000771F881F91505040A9F79E3F510580F0D4
:101B20000C94E40C0C942F0D5F3FE4F3983ED4F337
:101B3000869577956795B795F795E7959F5FC1F778
:101B4000FE2B880F911D9695879597F908950E9411
:101B5000C00C880B990B0895DB018F939F930E9413
:101B6000F20DBF91AF91A29F800D911DA39F900D8B
:101B7000B29F900D1124089597FB072E16F4009440
:101B800007D077FD09D00E94FD0D07FC05D03EF47B
:101B9000909581959F4F0895709561957F4F089519
:101BA000A1E21A2EAA1BBB1BFD010DC0AA1FBB1F61
:101BB000EE1FFF1FA217B307E407F50720F0A21BD3
:101BC000B30BE40BF50B661F771F881F991F1A9440
:101BD00069F760957095809590959B01AC01BD016A
:101BE000CF0108950E94170EA59F900DB49F900DF0
:101BF000A49F800D911D11240895AA1BBB1B51E1C8
:101C000007C0AA1FBB1FA617B70710F0A61BB70B6C
:101C1000881F991F5A95A9F780959095BC01CD0111
:101C20000895EE0FFF1F0590F491E02D0994A29FF7
:101C3000B001B39FC001A39F700D811D1124911DA0
:101C4000B29F700D811D1124911D0895F894FFCF4E
:101C50000924000188000A2400028A000000000014
:101C60007101D100FE00BE012F010D0121010D0AFD
:101C7000004552524F523A2050696E206E6F7420C8
:101C8000666F756E6400466F756E642070696E00D5
:101C90006E616E00696E66006F7666004E4B004F97
:101CA0004B007B22727073223A20002C2022736535
:101CB000745F727073223A20002C20227374656561
:101CC00072696E67223A20002C20227265766F6C52
:101CD0007574696F6E5F636F756E74223A20007D54
:021CE000000002
:00000001FF
