:100000000C9435000C945D000C945D000C945D0024
:100010000C945D000C945D000C945D000C945D00EC
:100020000C945D000C945D000C945D000C945D00DC
:100030000C945D000C945D000C945D000C945D00CC
:100040000C9446020C945D000C9414020C94EE0186
:100050000C945D000C9490020C945D000C945D0077
:100060000C945D000C945D00610611241FBECFEF5F
:10007000D8E0DEBFCDBF11E0A0E0B1E0E8E3F2E1FF
:1000800002C005900D92A237B107D9F724E0A2E78C
:10009000B1E001C01D92AD34B207E1F710E0C5E355
:1000A000D0E004C02197FE010E941409C433D10797
:1000B000C9F70E9495030C941A090C940000AF92A2
:1000C000BF92CF92DF92EF92FF920F931F93CF9345
:1000D000DF936C017B018B01040F151FEB015E01A7
:1000E000AE18BF08C017D10759F06991D601ED913C
:1000F000FC910190F081E02DC6010995892B79F7DB
:10010000C501DF91CF911F910F91FF90EF90DF908C
:10011000CF90BF90AF900895FC01538D448D252F53
:1001200030E0842F90E0821B930B541710F0CF9691
:10013000089501970895FC01918D828D981761F0C3
:10014000A28DAE0FBF2FB11D5D968C91928D9F5FDA
:100150009F73928F90E008958FEF9FEF0895FC01B9
:10016000918D828D981731F0828DE80FF11D858D6C
:1001700090E008958FEF9FEF0895FC01918D228DFF
:10018000892F90E0805C9F4F821B91098F73992784
:10019000089580EB93E00E94BD0021E0892B09F4D3
:1001A00020E0822F089580E090E0892B29F00E94C2
:1001B000C90081110C9400000895FC01A48DA80FC2
:1001C000B92FB11DA35ABF4F2C91848D90E0019699
:1001D0008F739927848FA689B7892C93A089B189B9
:1001E0008C91837080648C93938D848D981306C05A
:1001F0000288F389E02D80818F7D80830895EF92BE
:10020000FF920F931F93CF93DF93EC0181E0888FD0
:100210009B8D8C8D98131AC0E889F989808185FFA0
:1002200015C09FB7F894EE89FF896083E889F98942
:1002300080818370806480839FBF81E090E0DF9144
:10024000CF911F910F91FF90EF900895F62E0B8D97
:1002500010E00F5F1F4F0F731127E02E8C8D8E1152
:100260000CC00FB607FCFACFE889F989808185FFB9
:10027000F5CFCE010E94DD00F1CFEB8DEC0FFD2F0D
:10028000F11DE35AFF4FF0829FB7F8940B8FEA8974
:10029000FB8980818062CFCFCF93DF93EC01888D83
:1002A0008823B9F0AA89BB89E889F9898C9185FDF1
:1002B00003C0808186FD0DC00FB607FCF7CF8C917F
:1002C00085FFF2CF808185FFEDCFCE010E94DD005A
:1002D000E9CFDF91CF9108953FB7F89480918A01DB
:1002E00090918B01A0918C01B0918D0126B5A89BB6
:1002F00005C02F3F19F00196A11DB11D3FBFBA2FB8
:10030000A92F982F8827BC01CD01620F711D811D77
:10031000911D42E0660F771F881F991F4A95D1F7FC
:1003200008952FB7F89460918601709187018091AC
:100330008801909189012FBF0895FC010190002050
:10034000E9F73197AF01481B590BBC0180EB93E0F3
:100350000C945F008F929F92AF92BF920F931F9366
:10036000CF93DF93CDB7DEB7A1970FB6F894DEBF7A
:100370000FBECDBF19A2423008F44AE08E010F5DD6
:100380001F4F842E912CB12CA12CA50194010E9409
:10039000DE08E62FB901CA01EA30F4F4E05DD801C5
:1003A000EE938D01232B242B252B79F790E080E011
:1003B000109719F0CD010E949D01A1960FB6F894F7
:1003C000DEBF0FBECDBFDF91CF911F910F91BF90C8
:1003D000AF909F908F900895E95CE1CF1F920F92AC
:1003E0000FB60F9211242F933F934F935F936F9308
:1003F0007F938F939F93AF93BF93EF93FF9380EB84
:1004000093E00E94DD00FF91EF91BF91AF919F912A
:100410008F917F916F915F914F913F912F910F90AD
:100420000FBE0F901F9018951F920F920FB60F924C
:1004300011242F938F939F93EF93FF93E091C00329
:10044000F091C1038081E091C603F091C70382FD62
:100450001BC090818091C9038F5F8F732091CA0365
:10046000821741F0E091C903F0E0E055FC4F958F11
:100470008093C903FF91EF919F918F912F910F90DE
:100480000FBE0F901F9018958081F4CF1F920F928E
:100490000FB60F9211242F933F938F939F93AF9397
:1004A000BF938091860190918701A0918801B091BE
:1004B00089013091850123E0230F2D3758F50196EE
:1004C000A11DB11D20938501809386019093870122
:1004D000A0938801B093890180918A0190918B014A
:1004E000A0918C01B0918D010196A11DB11D809349
:1004F0008A0190938B01A0938C01B0938D01BF91E1
:10050000AF919F918F913F912F910F900FBE0F90C0
:100510001F90189526E8230F0296A11DB11DD2CF7A
:100520001F920F920FB60F9211240F931F932F93C8
:100530003F934F935F936F937F938F939F93AF936B
:10054000BF93CF93EF93FF93809179004091810106
:10055000509182016091830170918401E0918E033A
:10056000F0918F03E257FE4F9081491B51096109B9
:1005700071094093810150938201609383017093CC
:100580008401E0918E03F0918F03E257FE4F808348
:1005900040918101509182016091830170918401A9
:1005A000480F511D611D711D4093810150938201BF
:1005B000609383017093840140917D0150917E018D
:1005C00060917F01709180014F5F5F4F6F4F7F4F50
:1005D00040937D0150937E0160937F017093800171
:1005E000C1E0C093950320918E0330918F032F5F5C
:1005F0003F4F317030938F0320938E0340918101E0
:1006000050918201609183017091840199E0769507
:100610006795579547959A95D1F74093940390E045
:10062000209194032A50330B821793070CF063C078
:1006300020917C01222309F45EC00E949101009167
:1006400078011091790120917A0130917B01E0913C
:100650007701F0E0601B710BEE0FFF1FEA55FC4FB6
:10066000718360838091770190E0019665E070E08E
:100670000E94CA08809377010E94910160937801DB
:100680007093790180937A0190937B0110927C01A1
:10069000C09376010E94910160939A0370939B032B
:1006A00080939C0390939D0380919003909191037C
:1006B000A0919203B09193030196A11DB11D809367
:1006C000900390939103A0939203B0939303FF91AF
:1006D000EF91CF91BF91AF919F918F917F916F914A
:1006E0005F914F913F912F911F910F910F900FBEEE
:1006F0000F901F9018952091940330E0265F3F4F94
:100700002817390724F780917C018111E0CF0E94DE
:1007100091016093720170937301809374019093BF
:10072000750181E080937C01D2CF789484B582609A
:1007300084BD84B5816084BD85B5826085BD85B585
:10074000816085BD80916E00816080936E00109203
:10075000810080918100826080938100809181007E
:10076000816080938100809180008160809380000F
:100770008091B10084608093B1008091B00081606D
:100780008093B00080917A00846080937A00809199
:100790007A00826080937A0080917A0081608093F1
:1007A0007A0080917A00806880937A001092C1006C
:1007B000F8948FE880937A009FE090937E00809376
:1007C0007A0080E680937C0080917C008260809338
:1007D0007C008FEF80937E0080917B0080937B0074
:1007E000219A109280001092810080918000806C8C
:1007F0008093800082E18093810080E29EE4909368
:100800008700809386008CE895E090938900809320
:1008100088007894E091C003F091C10382E0808366
:10082000E091BC03F091BD031082E091BE03F09112
:10083000BF0380E180831092C803E091C403F0916C
:10084000C50386E08083E091C203F091C3038081F9
:1008500080618083E091C203F091C303808188604E
:100860008083E091C203F091C3038081806880831C
:10087000E091C203F091C30380818F7D80830E9449
:100880006C014B015C012CEDC22E25E0D22EE12C37
:10089000F12C0E946C01681979098A099B09683E4C
:1008A000734081059105A8F321E0C21AD108E1083F
:1008B000F10888EE880E83E0981EA11CB11CC114BB
:1008C000D104E104F10429F7C8EED3E000E010E020
:1008D000D12CC12CF12C812C912C5401F601EE0F5E
:1008E000FF1FEA55FC4F80819181892BA1F0808107
:1008F0009181883E934078F46081718190E080E03E
:100900000E94A1079B01AC01C501B4010E948F06A2
:100910004B015C01F3948FEFC81AD80A25E0C21688
:10092000D104E1F6FF2009F42FC1FC9EB001FD9E29
:10093000700D1124072E000C880B990B0E94A30741
:10094000A50194010E9400076B017C010E949101A6
:100950004090A2035090A3036090A4037090A5035D
:10096000641575058605970508F446C0A70196012C
:1009700060E070E080E291E40E948E062AE037EDAC
:1009800043EA5CE30E9458084B015C0120E030E040
:1009900040E85FE30E94530818160CF4F9C020E009
:1009A00030E0A901C501B4010E94FB0687FF03C026
:1009B000812C912C540120E030E041E154E4C50148
:1009C000B4010E94580820E030E841EB54E40E9452
:1009D0008F060E94720770938900609388008AE0F6
:1009E000480E511C611C711C4092A2035092A3033B
:1009F0006092A4037092A5030E94910180909E03CF
:100A000090909F03A090A003B090A1036815790572
:100A10008A059B05C0F080917A00806480937A00FB
:100A200080919E0390919F03A091A003B091A10398
:100A30000196A11DB11D80939E0390939F03A093E7
:100A4000A003B093A1030E94910180909A0390901B
:100A50009B03A0909C03B0909D03681979098A09B3
:100A60009B09653F714081059105A0F01092A70395
:100A70001092A6031092A9031092A8031092AB0340
:100A80001092AA031092AD031092AC031092AF0320
:100A90001092AE030E94910180909603909097036C
:100AA000A0909803B0909903681979098A099B0965
:100AB000653671058105910508F45AC010929503B9
:100AC00082E191E00E949D016091940370E090E0CA
:100AD00080E04AE00E94AA0186E291E00E949D0126
:100AE000A7019601C701B6010E94C508882309F431
:100AF00056C08EE291E00E949D018AE391E00E943F
:100B00009D01609188007091890090E080E04AE04A
:100B10000E94AA0184E491E00E949D0160919003EB
:100B20007091910380919203909193034AE00E9407
:100B3000AA0187E591E00E949D01E0918E03F0916A
:100B40008F03E257FE4F608170E090E080E04AE062
:100B50000E94AA018FE691E00E949D010E949101EE
:100B600060939603709397038093980390939903EF
:100B70000115110509F4ACCE0E94C900882309F4BF
:100B8000A7CE0E940000A4CEC12CD12C7601DECECF
:100B9000812C912C80E8A82E8FE3B82E0CCF460133
:100BA0005701E894B7F82FEF3FEF4FE75FE7C50134
:100BB000B4010E94C50881110DC02FEF3FEF4FE730
:100BC0005FE7C501B4010E94FB0618161CF482E31E
:100BD00091E091CF2FEF3FEF4FE75FE4C701B60100
:100BE0000E94530818161CF486E391E084CF2FEF7F
:100BF0003FEF4FE75FECC701B6010E94FB0687FDA0
:100C0000F3CF20E030E0A901C701B6010E94FB0646
:100C100087FF09C06DE280EB93E00E94FF00F7FAC6
:100C2000F094F7F8F0942AE037ED43EA5BE3C7016C
:100C3000B6010E948F064B015C010E9472076B0196
:100C40007C010E94A1079B01AC01C501B4010E9477
:100C50008E064B015C014AE0C701B6010E94AA0161
:100C60006EE280EB93E00E94FF0020E030E040E283
:100C700051E4C501B4010E9458084B015C010E9477
:100C800072076B01F12CE12C4AE0C701B6010E940A
:100C9000AA01C701B6010E94A1079B01AC01C501D1
:100CA000B4010E948E0620E030E040E251E40E9450
:100CB00058080E94720790E080E04AE00E94AA0172
:100CC0001CCFE0EBF3E01382128288EE93E0A0E009
:100CD000B0E084839583A683B78384E091E0918319
:100CE000808385EC90E09587848784EC90E09787FB
:100CF000868780EC90E0918B808B81EC90E0938BE9
:100D0000828B82EC90E0958B848B86EC90E0978BC5
:100D1000868B118E128E138E148E08955058BB2719
:100D2000AA270E94A6060C9419080E940B0838F006
:100D30000E94120820F039F49F3F19F426F40C9415
:100D400008080EF4E095E7FB0C940208E92F0E94D6
:100D50002A0858F3BA17620773078407950720F02B
:100D600079F4A6F50C944C080EF4E0950B2EBA2FEE
:100D7000A02D0B01B90190010C01CA01A0011124A1
:100D8000FF27591B99F0593F50F4503E68F11A164D
:100D9000F040A22F232F342F4427585FF3CF4695DE
:100DA00037952795A795F0405395C9F77EF41F1600
:100DB000BA0B620B730B840BBAF09150A1F0FF0FCA
:100DC000BB1F661F771F881FC2F70EC0BA0F621FB6
:100DD000731F841F48F4879577956795B795F795A6
:100DE0009E3F08F0B0CF9395880F08F09927EE0F3B
:100DF0009795879508950E94DE0708F481E008958D
:100E00000E9414070C9419080E94120858F00E94BE
:100E10000B0840F029F45F3F29F00C9402085111AF
:100E20000C944D080C9408080E942A0868F3992332
:100E3000B1F3552391F3951B550BBB27AA276217D6
:100E40007307840738F09F5F5F4F220F331F441FE3
:100E5000AA1FA9F335D00E2E3AF0E0E832D0915017
:100E60005040E695001CCAF72BD0FE2F29D0660F04
:100E7000771F881FBB1F261737074807AB07B0E847
:100E800009F0BB0B802DBF01FF2793585F4F3AF04D
:100E90009E3F510578F00C9402080C944D085F3F7A
:100EA000E4F3983ED4F3869577956795B795F795D3
:100EB0009F5FC9F7880F911D9695879597F90895BB
:100EC000E1E0660F771F881FBB1F62177307840757
:100ED000BA0720F0621B730B840BBA0BEE1F88F766
:100EE000E09508950E94320888F09F5798F0B92F36
:100EF0009927B751B0F0E1F0660F771F881F991F4F
:100F00001AF0BA95C9F714C0B13091F00E944C089C
:100F1000B1E008950C944C08672F782F8827B85FAC
:100F200039F0B93FCCF3869577956795B395D9F7A6
:100F30003EF490958095709561957F4F8F4F9F4FB0
:100F40000895E89409C097FB3EF4909580957095BC
:100F500061957F4F8F4F9F4F9923A9F0F92F96E905
:100F6000BB279395F695879577956795B795F1117A
:100F7000F8CFFAF4BB0F11F460FF1BC06F5F7F4F17
:100F80008F4F9F4F16C0882311F096E911C0772329
:100F900021F09EE8872F762F05C0662371F096E832
:100FA000862F70E060E02AF09A95660F771F881F01
:100FB000DAF7880F9695879597F90895990F0008A5
:100FC000550FAA0BE0E8FEEF16161706E807F9071B
:100FD000C0F012161306E407F50798F0621B730BB6
:100FE000840B950B39F40A2661F0232B242B252B37
:100FF00021F408950A2609F4A140A6958FEF811DDA
:10100000811D089597F99F6780E870E060E008957A
:101010009FEF80EC089500240A9416161706180610
:101020000906089500240A941216130614060506EC
:101030000895092E0394000C11F4882352F0BB0F7D
:1010400040F4BF2B11F460FF04C06F5F7F4F8F4FE0
:101050009F4F089557FD9058440F551F59F05F3F1B
:1010600071F04795880F97FB991F61F09F3F79F0CA
:1010700087950895121613061406551FF2CF46954C
:10108000F1DF08C0161617061806991FF1CF8695CE
:101090007105610508940895E894BB2766277727B2
:1010A000CB0197F908950E94DE0708F48FEF0895A9
:1010B0000E946B080C9419080E940B0838F00E94DB
:1010C000120820F0952311F00C9402080C940808E3
:1010D00011240C944D080E942A0870F3959FC1F3C7
:1010E000950F50E0551F629FF001729FBB27F00DD6
:1010F000B11D639FAA27F00DB11DAA1F649F66272B
:10110000B00DA11D661F829F2227B00DA11D621F79
:10111000739FB00DA11D621F839FA00D611D221F33
:10112000749F3327A00D611D231F849F600D211D17
:10113000822F762F6A2F11249F5750409AF0F1F09A
:1011400088234AF0EE0FFF1FBB1F661F771F881F03
:1011500091505040A9F79E3F510580F00C94020831
:101160000C944D085F3FE4F3983ED4F38695779551
:101170006795B795F795E7959F5FC1F7FE2B880FA9
:10118000911D9695879597F908950E94DE07880B23
:10119000990B089597FB072E16F4009407D077FD5E
:1011A00009D00E94000907FC05D03EF49095819576
:1011B0009F4F0895709561957F4F0895A1E21A2E73
:1011C000AA1BBB1BFD010DC0AA1FBB1FEE1FFF1FEB
:1011D000A217B307E407F50720F0A21BB30BE40B3B
:1011E000F50B661F771F881F991F1A9469F7609582
:1011F0007095809590959B01AC01BD01CF0108953C
:10120000AA1BBB1B51E107C0AA1FBB1FA617B7072C
:1012100010F0A61BB70B881F991F5A95A9F7809548
:101220009095BC01CD010895EE0FFF1F0590F4913C
:08123000E02D0994F894FFCFB2
:1012380000000000FF005F008C004C01BD009B0017
:10124800AF004C6F6E67207465726D2061766572B1
:101258006167653A20002C205250533A20006E6195
:101268006E00696E66006F7666002C204F4352311F
:10127800413A20002C20726F746174696F6E20638C
:101288006F756E743A20002C206C617374206D6544
:101298006173757265642076616C75653A20000D1E
:0212A8000A003A
:00000001FF
